:0400000031C0FECF3E
:10000400FDCFFCCFFBCFFACFF9CFF8CFF7CFF6CFA8
:10001400F5CFF4CFF3CFF2CFF1CFF0CFEFCFEECFD8
:10002400EDCF0000000000003738392F3435362A70
:100034003132332D63303D2B01002D4E414E0049AA
:100044004E46000080C00600040026001000700127
:100054002C00010080013C000200840148000000E3
:10006400F894EE27ECBBF1E0FBBFEBBFE5BF8DE0FE
:10007400A2E0BB27ED938A95E9F780E094E0A0E63F
:10008400ED930197E9F7EAE4F0E085919591009703
:1000940061F0A591B59105901590BF01F00105900F
:1000A4000D920197E1F7FB01F0CFEFE5EDBFE4E03E
:1000B400EEBFC0E6D1E068C058D200E0053020F5BC
:1000C400E02FA1E009D2E095E2BBE0B3E095E07F48
:1000D400F0E00FD21E2F1030A9F0183011F4E3E035
:1000E40004C0E12FF0E0F595E7951E2FE02FA0E77F
:1000F400B1E0F0E0F9D1AE0FBF1FEE27A10FBE1F94
:10010400EC9103C00F5FDACFE0E0099119910895F3
:10011400EBE2E81521F4F301E40DF51D0895EDE299
:10012400E81521F4F201E619F7090895EFE2E8155C
:1001340021F4F301D20106D20895EAE2E81521F48C
:10014400F301D201E7D10895EDE3E81511F4F201CA
:10015400089508959924E0E1E91540F0E92DF0E0CF
:10016400E05AFE4FA0E0A0839394F5CF2BD18820D2
:1001740031F0E0E0EA93A1E018D1A82D31D1E0E01C
:10018400EA93A0E012D10895E0E0E7BBE8BBE4BB4A
:10019400E5BBEFE0E1BBE0EFE2BBE0E0E3BFE2BFE1
:1001A400EFBDEEBDEDBDECBDE7BDE6BDEBBDEABD0B
:1001B400E9BDE8BDE2BDE5BDE4BDE3BDE9BFE5BF22
:1001C400EAB9E0E8E8B9E0E0E0BFE6B9EDB9E6BFD6
:1001D400A0E12BD1F7D02297E0E0E883E983A8815E
:1001E400B98150970CF050C02197E0E0E88364DFB8
:1001F400E883A881A33639F466247724ABDFE0E0F2
:10020400E983EA833DC0A881AB3241F0AD3231F0DD
:10021400AF3221F0AA3211F0AD33C9F48820A9F02D
:100224002301A0E6B1E033D03F0172DF3F018880B3
:1002340091DF7A926A92A0E6B1E05ED0A0E6B1E0E6
:10024400E3D0E0E0E983EA8301C0888019C0E88153
:10025400E030B1F0E981FA81309709F47BDFE9817C
:10026400FA81E05AFE4FA881A083E981EA93A0E0D5
:100274009CD0A881B5D0E981FA813196E983FA83CB
:10028400A8EC10D12196ABCF2296A5CFFFCFBA937D
:10029400AA93B981A881EC918A2FAE2FF8D0A82F08
:1002A400EE2311F01196F7CFE894EC91ED3211F4AE
:1002B400689402C0EB3209F4119666277727EC9113
:1002C4008A2FAE2FDBD0A82FEE2379F0FB01660F27
:1002D400771F660F771F6E0F7F1F660F771FED91D5
:1002E400FF27E0536E0F7F1FEACFFB011EF4E0955A
:1002F400F095319622960895BA93AA93A991B9914B
:10030400E991F99130962AF4E095F09531966DE2F1
:100314006D93E89480E197E20DD088EE93E00AD0E3
:1003240084E6992707D08AE005D06E2F10D066277F
:100334006C9308956627E817F90720F06395E81B86
:10034400F90BC9F7662311F416F008956894605DFB
:100354006D930895AA93E881E07111F0C39A01C0E6
:10036400C398E881E07211F0C29A01C0C298E88192
:10037400E07411F0C19A01C0C198E881E07811F0ED
:10038400C09A01C0C09890D0C49A8ED0C4988CD022
:1003940073C0AA93A881DEDFE881E295E883A8818F
:1003A400D9DF81E18A95F1F767C0AA93E881F0E08B
:1003B400EC57FE4FE081A981AE0FEBDFB980A88036
:1003C40022960895A2E0E5DFA3E06CD0ACE0E1DF83
:1003D400A1E0DFDFA3E066D0E0E0AE2EBE2E0895FC
:1003E400AA93A881AA3011F0BD1440F0E0E0EA938A
:1003F400A394AA2DDADFA881AA30F1F1B394C69AA6
:10040400A881C7DFC69838C0BA93AA931A93A98162
:10041400BA81ED91A983BA831E2FE03019F0A12F80
:10042400DFDFF5CF188123960895AA93BB9ABA9A71
:10043400B99AB89ABC9ABE9ABD9AC498C698C598F7
:10044400D880E881E058E0938601E881E054E093A5
:100454008701A4E127D02CD02BD02AD0A0E27ADFC8
:1004640081E28A95F1F7A8E294DFA4E092DFA5E89F
:1004740090DFA6E08EDFA6DF21960895AA93E1E03F
:10048400F991F03310F0FA3308F0EE270895AA93A7
:10049400E1E0F991F03229F0F93010F0FE3008F083
:1004A400EE270895B0E00AC082E08A95F1F7089536
:1004B400A0E350DF81E28A95F1F70895109639F0B0
:1004C4008AEF90E00197F1F7A8951197C9F708957D
:1004D400F195E195F0400895EE230E2EEA2F19F0E0
:1004E400EE0F0A94E9F70895EE0FFF1FEE0FFF1FBA
:1004F4000895F595E795F595E795F595E795F595BF
:10050400E7950895FA9FF02DEB9FF00DEA9FE02DFB
:10051400F10D08951CD0F6DF0EF4DADF08950024FF
:10052400112490E1AA0FBB1F001C111C0E1A1F0AF4
:1005340018F40E0E1F1E01C0A1609A9599F7FD01D3
:10054400D001089504D0EBDF0EF4C2DF0895E894DF
:10055400F7FF02C0BDDF6894B7FF06C0A095B09551
:10056400119600F8039400FA08951A930A930895D3
:00000001FF
