:020000000C945E
:1000020043000C9400000C9400000C9400000C942B
:1000120000000C9400000C9400000C9400000C945E
:1000220000000C9400000C9400000C9400000C944E
:1000320000000C9400000C9400000C9400000C943E
:1000420000000C9400000C9400000C9400000C942E
:1000520000000014000000002B002D002A002F00D9
:100062003D0001002D4E414E00494E46000080C029
:1000720006000400540001006C01640002007001DB
:1000820070000000F894EE27ECBBF1E0FBBFEBBF81
:10009200E5BF8DE0A2E0BB27ED938A95E9F780E00A
:1000A20094E0A0E6ED930197E9F7E2E7F0E08591AD
:1000B2009591009761F0A591B59105901590BF01BA
:1000C200F00105900D920197E1F7FB01F0CFEFE50A
:1000D200EDBFE4E0EEBFC0E6D1E00C9400019098E1
:1000E200849905C0E7E05E2E4394849BFECF8599F8
:1000F20005C0E8E05E2E4394859BFECF869905C03D
:10010200E9E05E2E4394869BFECF879904C0EFE020
:100112005E2E879BFECF909A9198849905C0E4E069
:100122005E2E4394849BFECF859905C0E5E05E2E4A
:100132004394859BFECF869905C0E6E05E2E4394EC
:10014200869BFECF879904C0EEE05E2E879BFECF92
:10015200919A9298849905C0E1E05E2E4394849B23
:10016200FECF859905C0E2E05E2E4394859BFECFCB
:10017200869905C0E3E05E2E4394869BFECF879965
:1001820004C0EDE05E2E879BFECFEFEFE2BB9398BB
:10019200849908C00E941403939AE8EC5E2E089595
:1001A200849BFECF859904C055244394859BFECF42
:1001B200869904C0ECE05E2E869BFECF879904C030
:1001C200EBE05E2E879BFECF939AE52D0895AA93CE
:1001D2006097EA89EA93AA890E940703EB89FC895E
:1001E2006D897E890E946206EC89EA93DE0115968A
:1001F2000E941A02DE010E94350367960895EFEF0E
:10020200EABBE0E0EBBBE7BBE8BBE4BBE5BBE1BBC1
:10021200E2BBE3BFE2BFECBFEFBDEEBDEDBDECBDA7
:10022200E7BDE6BDEBBDEABDE9BDE8BDE2BDE5BDAA
:10023200E4BDE3BDE9BFE5BFE4BFEAB9E0E8E8B980
:10024200E0E0E0BFE6B9EDB9E6BFEFE0E1BBEFEF1A
:10025200E2BBA8E00E9457036624442440DFA4E6E0
:10026200B1E00E94DA03E1E0E415C1F70E94140351
:100272000E94E20334DFE8ECE51571F3EAE05E1672
:1002820080F40E94F6030E94FF030E940604E52DFB
:10029200F0E00E94F6030E940F040E9406040E94EE
:1002A200E203A52DEBE00E9449060E2EEDE00E942E
:1002B20049060E22EEE00E9449060E22EFE00E945D
:1002C2004906E021B9F6E52DF0E0EB30A0E0FA07AF
:1002D20041F40E941604AAE5B0E00E944403E1E062
:1002E20023C0ED30A0E0FA0741F40E941604ACE509
:1002F200B0E00E944403E2E017C0EE30A0E0FA074B
:1003020041F40E941604AEE5B0E00E944403E3E02B
:100312000BC0EF30A0E0FA0741F40E941604A0E6F9
:10032200B0E00E944403E4E07E2EE1E04E2E6394AE
:10033200D6DEA8E6B1E00E94DA03E8ECE51509F49E
:100342008BCFE2E0E415A1F70E941A046A92E0E082
:10035200EA93A0E03CDFE4E15E2E962CC0DEE8ECFE
:10036200E51509F479CFEAE05E16C0F40E9425048F
:100372000E94FF030E942E04E52DF0E00E94250456
:100382000E940F040E942E040E941A049A92E0E036
:10039200EA93A0E01CDF6394E4E15E2EECE0E51555
:1003A200E9F663940E941604A2E6B0E00E944403B8
:1003B200E1E0E71529F40E9437040E9433051FC0CB
:1003C200E2E0E71569F40E942504E0916401F091EE
:1003D200650160916601709167010E942C050FC052
:1003E200E3E0E71529F40E9437040E94830507C061
:1003F200E4E0E71561F40E9437040E94D105E0931E
:100402006001F09361016093620170936301E09176
:100412006001F091610160916201709163010E943B
:100422006206E0E0EA93E1E0EA93A3E0D0DE14CFD3
:10043200FFCFBA93AA932497E0E0E883E983EA83A3
:10044200EFE3EB831A930A93EB85FC85EF3FAFEF63
:10045200FA0739F40E944004A6E6B0E00E94CD03F8
:10046200B1C0EF3FAFE7FA0739F40E944004A7E6B4
:10047200B0E00E94CD03A6C0AC85AA2362F4E98550
:10048200FA856B857C850E948D040E9445040E943A
:100492004A04EDE2EC93A885A73010F0E6E0E88785
:1004A2001885E12F1150E03039F00E9451040E946A
:1004B20056040E945D04F5CF0E9462040E94330537
:1004C2000E94450410E0E0E0F0E060E87FE30E9473
:1004D2005D040E9462040E94160688F00E94510484
:1004E2000E94FF030E945D041F5F173238F00E94D2
:1004F2004004ABE6B0E00E94CD0364C0EACF103006
:1005020029F40E944A04E0E3EC932FC0E12F11503A
:10051200E03059F10E9451040E945604A0E0B0E07C
:1005220080E09FE30E943305DF01CB010E94B60306
:100532000E945D040E9462040E94D1050E94C004D0
:100542000E2F0E944A04E02FE05DEC93E02FF0E0D2
:100552000E9451040E9444060E94F9040E948305ED
:100562000E946B040E947004D1CFE885E03031F123
:100572000E944A04EEE2EC93E885E150E887EF5FDF
:10058200E9F00E946B040E94FF030E944504E98582
:10059200FA856B857C850E94C0040E2F0E944A0456
:1005A200E02FE05DEC93E02FF0E00E946B040E94EC
:1005B20044060E94F9040E947004DECFAE81BF811E
:1005C200E0E0EC93198108812D960895AA93EBB38C
:1005D200EF70AE2FE881E07FEA2BEBBB8DE08A95CE
:1005E200F1F7DA9A8DE08A95F1F7DA988DE08A953B
:1005F200F1F788C0AA93A881E9DFE881E295E88350
:10060200A881E4DF85E88A95F1F77CC0AA93E881A6
:10061200F0E0E059FE4FE081A981AE0FEBDF898067
:10062200B88022960895A2E00E947504ACE0E2DF51
:10063200A1E00E947504E0E0BE2E8E2E0895AA93DA
:10064200A881AA3011F08A1448F0E0E0EA93B3944A
:10065200AB2DDCDFA881AA3009F454C08394D89A68
:10066200A881C8DFD8984EC0BA93AA931A93A981D9
:10067200BA81ED91A983BA831E2FE03019F0A12F20
:10068200DEDFF5CF10C0BA93AA931A93E981FA81FB
:100692003196E983FA833197E4911E2FE03019F005
:1006A200A12FCDDFF3CF188123960895AA93EAB341
:1006B200E06FEABBD29AD09AD19ADA98D898D998B0
:1006C200A880E881E058E0937201E881E054E09369
:1006D2007301A4E1B0E00E9483040E947B040E94A3
:1006E2007B040E947B04A0E271DF88EC90E001971A
:1006F200F1F7A8E27FDFA4E07DDFA5E87BDFA6E0DB
:1007020079DF91DF219608950E9467067B816A81D5
:10071200F981E88177FB770F67FD7160972F9E570C
:1007220081F078F0983190F4AA27BB2788270894A3
:100732008795B795A7959A95D1F7EA23FB23682366
:1007420005C0E8947727EE27FF2766276F7776950F
:1007520008F4606877F9A991B99189919991EA179A
:10076200FB076807790797FB08950E9467060E94B6
:1007720058060E9485030E945D0619F40E945306E2
:1007820009C0E6F70E945306A0E0B0E080E89FE3CC
:100792000E942C0524960895BA93AA93E991F9919F
:1007A200A991B991CD0105900D920020E1F7FC01CC
:1007B2000895FF27662777270E94F9040E944E06B4
:1007C2000895E0916401F091650160916601709174
:1007D20067010E946206E0E0EA93EA93A0E00E94C9
:1007E200E8006394E4E15E2E0895A0916401B09163
:1007F200650180916601909167010895E0E0F0E063
:1008020060E271E40E9483050895E0936401F0932D
:100812006501609366017093670108950E94440622
:100822000E94F9040E94330508956A92A0E00C9494
:100832000703E0916801F091690160916A0170918A
:100842006B010E9462060895A0916801B09169014E
:1008520080916A0190916B010895E0936801F09391
:10086200690160936A0170936B010895E0916801D8
:10087200F091690160916A0170916B01B6CFEE81CE
:10088200FF81FA93EA930895E987FA876B877C8759
:100892000895AE81BF811196AE83BF8311970895EB
:1008A200AA81BB818C819D810895EDECFCEC6CECFE
:1008B2007DE30E9483050895EA83FB836C837D8335
:1008C2000895EA81FB816C817D81A985BA858B853A
:1008D2009C850895A985BA858B859C8508950E947B
:1008E2006C060E942C05D0CF0E94FB02A3E0B0E070
:1008F2000C948304A0E30E94E70288EC90E0019745
:10090200F1F70895109639F080ED97E00197F1F72D
:10091200A8951197C9F7089530976040704009F083
:1009220070580895552342F4503811F4E0FF04C082
:100932003196691F791F6BF050E8572711F45F93C6
:10094200CFC05F3F31F0660F000C57956795752F4A
:1009520008955F9300200AF0CFC0C8C050E8192E56
:100962001522880F991F9527550F879550E8072E56
:100972000522660F771F7527550F679508956894AE
:1009820001C0E8945F93F2DF703818F07F3F08F4FB
:10099200A7C056E1571BAAF4519558300EF45930AE
:1009A20030F0EFEFFFEF6FEF7FE777F91AC07727AD
:1009B2005523B9F0EE0FFF1F661F771F5A95D1F727
:1009C20010C07727583028F0EF2FF62F672F585096
:1009D200F9CF552331F076956795F795E7955A95B6
:1009E200D1F700200AF441D15F910895689401C0C3
:1009F200E894309760407040B1F0002426F07723ED
:100A020012F4009432D1172E7EE1112032F07A9541
:100A1200EE0FFF1F661F111CF9CFEF2FF62F612D6E
:100A22005F938ADF5F9108954F93AF01FD01DA0171
:100A3200AB01BC01CA01402D012C142E4F91089527
:100A4200EA0FFB1F681F0895E095F0956095EF5F30
:100A5200FF4F6F4F08955F9381DF903871F150E837
:100A6200152604C05F937ADF903839F1703821F18E
:100A7200572F591B2BF112F4D7DFFACF583118F048
:100A8200AA27BB278827583028F0AB2FB82F8827F2
:100A92005850F9CF552329F08695B795A7955A95C1
:100AA200D9F7502D512572F0CBDF38F46795F795C1
:100AB200E795739513F420C0B7DF3EDF5F91089589
:100AC200D8F7FBCFEA1BFB0B680B51F010F4009434
:100AD200BBDF662392F3EE0FFF1F661F7A95CBF7FB
:100AE200EE27FF27662777275F910895EFEFFFEF45
:100AF2006FE77FEF5F910895EFEFFFEF6FE77FE71B
:100B02005F9108955F932ADF703851F3903841F373
:100B120001240894791F23F41CF300203AF3ECCF4C
:100B22000F921F932F933F934F93112722279927B9
:100B3200689FA0018F9F302D410D591F6B9F300D73
:100B4200411D591F8E9F27D0BF9F25D06A9F23D05A
:100B5200BE9F1DD0AF9F1BD0AE9F110D291F391F05
:100B6200491F591FE32FF42F652F522F4F913F91A9
:100B72002F911F910F9066232AF0550FEE1FFF1F32
:100B8200661F02C073954BF2CDDE5F910895100D82
:100B9200211D391F02C0200D311D491F591F089503
:100BA2005F93DCDE703821F411200AF49FCFA4CFCA
:100BB200903809F495CF01240894970B1BF4D4F3D1
:100BC2000020F3CF792F1F932F933F934F9311243C
:100BD2001127222733274427552790E2AE17BF0754
:100BE2008607410730F0AE1BBF0B860B410B089402
:100BF20001C08894551F221F331F111CAA1FBB1F3F
:100C0200881F441F9A9551F7F901612D4F913F9129
:100C12002F911F91662332F0550FEE1FFF1F661FA3
:100C22007A9543F27FDE5F91089599239AF07723B4
:100C320042F0971748F029F4AE17BF07860720F055
:100C420031F098948894089598940894089518948B
:100C5200889408957723C2F7971798F3A9F7EA17AC
:100C6200FB07680788F399F3ECCFF09560957095D0
:100C7200E195FF4F6F4F7F4F0895FE2FFF0FFF0B40
:100C82006F2F7F2F08956F2F660F660B762F0895B3
:100C9200EA17E1E009F4EE270895ED93FD936D93D1
:100CA2007C930895E881F9816A817B810895A88106
:100CB200B9818A819B810895E883F9836A837B8362
:100CC20008957A936A93FA93EA9308959A938A938A
:100CD200BA93AA930895182E862F612D192E972F55
:100CE200712D1B2EBF2FF12D1A2EAE2FE12D08953F
:00000001FF
