:0E0000000C9481000C9400000C9400000C94F1
:10000E0000000C9400000C9400000C9400000C9462
:10001E0000000C9400000C9400000C9400000C9452
:10002E0000000C9400000C9400000C9400000C9442
:10003E0000000C9400000C9400000C9400000C9432
:10004E0000000C940000FEFDFBF7633738392A2FB1
:10005E006E3435362D6D253132332B6473302E3D93
:10006E002B690000000000000000010000000A00E3
:10007E00000064000000E803000010270000A086C6
:10008E00010040420F008096980000E1F505000047
:10009E004D61204552524F520A256600416E730043
:1000AE0025660A256600252E32662563252E3266C4
:1000BE000A2566004D454D4F52590A4D3D256600A5
:1000CE0080C02D4E414E000001002D4E414E004984
:1000DE004E460000040060015400180064015800F0
:1000EE000800B4019E000200BD01CE000100C10156
:1000FE00D6000000F894EE27ECBBF1E0FBBFEBBF9F
:10010E00E5BFF8E1F1BDE1BD8DE0A2E0BB27ED93C7
:10011E008A95E9F780E094E0A0E6ED930197E9F780
:10012E00E2EEF0E085919591009761F0A591B59181
:10013E0005901590BF01F00105900D920197E1F722
:10014E00FB01F0CFEFE5EDBFE4E0EEBFC0E6D1E09E
:10015E000C94C4020E94BC0CEFE0E7BBEFEFE8BBCF
:10016E00E0E0EABBEFE0EBBB10E01430C8F506E0D0
:10017E00E12FF0E0E05AFE4FE081E8BB8BE18A957B
:10018E00F1F7B49B00E0B59B01E0B69B02E0B79B94
:10019E0003E0C89B04E0C99B05E00630F9F0E6E0F9
:1001AE00E19FF001DF01E02FF0E0EA0FFB1FEC59B9
:1001BE00FE4F3081B49BFECFB59BFECFB69BFECFDC
:1001CE00B79BFECFC89BFECFC99BFECFA2E3B0E08C
:1001DE000E94020AE32F0E94C30C16C11F5FC5CFF7
:1001EE00C3CFE8978EE2A0E0B0E0E0E7F0E00E9437
:1001FE00C80C0E94BA0C552019F0A52D0E947B0345
:10020E00E0E0F0E060E070E00E9466080E943F0AC5
:10021E004E2F2E2F3E2F5E2E552009F04DC09ADF09
:10022E001E2F772069F00E946B08E6EAF0E0FA9341
:10023E00EA930E9472080E947B080E948508772428
:10024E00103391F0113381F0123371F0133361F0EA
:10025E00143351F0153341F0163331F0173321F0CA
:10026E00183311F0193391F4393078F4A12F0E941C
:10027E007B03E12FEF700E2FE32FF0E0DE01D4961B
:10028E00EA0FFB1F00833F5F232F01C0512EEEE6C6
:10029E00E51531F45524E1E0EBABADE20E947B03B2
:1002AE00EEE2E51541F4EAA9E03019F4AEE20E945F
:1002BE007B03E1E0EAABB0CF303011F03150432F89
:1002CE0050E04517C8F0E52FF0E0DE01D496AE0FF2
:1002DE00BF1F0C901124E32F0E948F08D0010E94A3
:1002EE00080C0E940D0C0E9499080E94B20A0E94EE
:1002FE00660831505F5FE5CFAAA9A13049F4E2E06C
:10030E00EAAB0E94A008EE83FF836887798778CFD7
:10031E00AAA9A23099F4E52F0E948F080E9499088D
:10032E000E94500B0E946608EE81FF8168857985D8
:10033E000E94A5080E94B20A0E946608EBA9E0304E
:10034E0061F0E0E0EBAB0E94A508E0E0F0E060E8D1
:10035E007FEB0E94020B0E946608203041F40E943F
:10036E0072080E946608AAEAB0E00E94A4030E94E6
:10037E00A0080E94C10CEE9608950E946B080E9480
:10038E00AA0853C0542C0E946B08E4EBF0E0FA93D9
:10039E00EA930E94C2080E949F0CE52DFF27662754
:1003AE0077270E949F0C0E94CB080E949F0C0E94F0
:1003BE0072080E949F0C80E10E9423076496ACE7AE
:1003CE00B1E033C0AA930E946C03E0E8EA93A981DE
:1003DE000E944003ECE7F1E0FA93EA930E94AA0828
:1003EE000E949503E1E07E2E0C94F9030E94A40C6A
:1003FE000E946B08E2ECF0E0FA93EA930E94D408B4
:10040E000E947B08E1E07E2E249608950E94C20889
:10041E000E94D908B2DF08950E946C03E6E0EA93C9
:10042E00A0E00E945C03A4EBB1E00E949503E1E022
:10043E007E2E0895E0E04E2E5E2EACEAB1E0FF2750
:10044E00662777270E94780A0E948B0C0E94E2088A
:10045E000E94D9080E946C03E3E1EA93A1E00E9496
:10046E005C03A0E30E947B030E94850808950E940E
:10047E00EB080E94F6080E94B20A62C00E94EB08C6
:10048E00A091AC01B091AD018091AE019091AF0100
:10049E000E94C2080E94AB0A53C00E94EB080E9441
:1004AE00F6080E94020B4CC00E94EB080E94CB087B
:1004BE000E94B60C11F4B0DF07C00E94F6080E942D
:1004CE00500B0E94D9085EDF0895A091AB01AA23BC
:1004DE0012F4A2DF08C00E9400090E94B50B0E9410
:1004EE00D908A8EE6FDF08950E947208A091B0019E
:1004FE00B091B1018091B2019091B3010E94B20A04
:10050E000E94090930C0A091A401B091A50180916B
:10051E00A6019091A701E091B001F091B101609117
:10052E00B2017091B3010E94AB0A0E9409091BC06F
:10053E000E940009E0E0F0E068EC72E40E94500BCB
:10054E00E093A401F093A5016093A6017093A70117
:10055E0019DF0895E0E0E093B001E093B101E0937C
:10056E00B201E093B301A091B001B091B1018091BD
:10057E00B2019091B3013ADF0895A4E10E94C8033D
:10058E0059DF2FDE0E94E208452CE52DF0E0ED3319
:10059E00A0E0FA0711F43ADF3BC0E336A0E0FA0719
:1005AE0011F448DF35C0EB32A0E0FA0711F45FDF3B
:1005BE002FC0ED32A0E0FA0711F460DF29C0EA3255
:1005CE00A0E0FA0711F469DF23C0EF32A0E0FA07CA
:1005DE0011F46ADF1DC0E337A0E0FA0711F475DFEE
:1005EE0017C0E936A0E0FA0711F47EDF11C0E43639
:1005FE00A0E0FA0711F487DF0BC0ED36A0E0FA0792
:10060E0011F4A8DF05C0E532A0E0FA0709F490DF87
:10061E005524B7CFFFCFFFE0FA95F1F70895A1B3B8
:10062E00AF70A1BB919A9098F6DF929AF4DFA0B3C7
:10063E009298F1DF929AEFDF9298A7FDF5CF089589
:10064E00A07FAB2BA2BB929A0E94120392980E949B
:10065E0012030895AA939198A1B3A76FA1BBB2B349
:10066E00BF70A881EDDFA881A295EADF919A0C9464
:10067E00F903AA930E941603A9810E941209909A67
:10068E00A881E8DF20C0929A0E941203E0B39298EC
:10069E000E941203E07F08950E941203F4DFAE2F32
:1006AE00F2DF9198E295EA2B0895AA930E94160321
:1006BE00E881F0E0E354FE4FE081A981AE0F0E9485
:1006CE00310369809880229608950E941603A2E055
:1006DE000E941209ACE00E941209A1E00E943103AF
:1006EE00E0E09E2E6E2E0895AA93EF93FF93A881BD
:1006FE006894AA3019F0E894681430F09394E0E00E
:10070E00EA93A92DD2DF36F0639489DF909AA881FF
:10071E000E943103FF91EF910C94F903BA93AA93BF
:10072E001A93A981BA81ED91A983BA831E2FE03065
:10073E0019F0A12FD9DFF5CF10C0BA93AA931A934F
:10074E00E981FA813196E983FA833197E4911E2F7C
:10075E00E03019F0A12FC8DFF3CF1881239608954A
:10076E00AA27BB271197F1F70895AA939198A1B3E1
:10077E00A76FA1BBB2B3BF70A8810E942703919A45
:10078E0031C0AA93929890988880E881E058E093BF
:10079E00BF01E881E054E093C0010E9416090E9457
:1007AE0016090E941609DCDFA0E2DFDFD9DFA8E21E
:1007BE000E941B09A4E00E941B09A5E80E941B09C8
:1007CE00A1B3AF70A1BB919A0E945303E53011F013
:1007DE00E0E008C00E941603A6E00E9431030E94CA
:1007EE006C03E1E021960895BA93AA931A930A93A3
:1007FE00AA81BB8112960E94810C309729F1AA81A1
:10080E00BB8114960E94810C8F01309761F00230EB
:10081E00E0E01E0780F0F80131978F01AA81BB81BD
:10082E001496ED93FC93AA81BB8112960E941F0928
:10083E003197AC81A083AA81BB810E94810CFF23DA
:10084E0012F00E941F0906C0AA81BB81EFEFFFEFD5
:10085E00ED93FC9319810881259608950E94250930
:10086E00E0E8EA83EFE3EB830E94BC0CEE85FF85A4
:10087E00EF3FAFEFFA0749F4E885F985FA93EA936B
:10088E00A0EDB0E00E949F07B9C0EF3FAFE7FA07B7
:10089E0049F4E885F985FA93EA93A1EDB0E00E9458
:1008AE009F07ACC0AB85A73010F0E6E0EB871B8549
:1008BE00E12F1150E03019F00E942C09F9CFEC8590
:1008CE00FD856E857F850E94B60C21F430E00E9476
:1008DE002C092DC03B850E943B0909F008F40BC082
:1008EE000E942C090E943B0928F00E9443090E9495
:1008FE004809F8CF0DC00E943B0940F40E944309FD
:10090E000E9454090E945B093150F5CF0E942C09B8
:10091E00EC85FD856E857F850E9460090E945B09CE
:10092E000E943B0920F00E9443090E94480910E0F2
:10093E00EB85E117B8F1AC81BD818E819F810E945C
:10094E0067090E946009DF01CB010E948807EC83D2
:10095E00FD836E837F830E94D4080E9443090E9408
:10096E00500B0E943F0A0E2F0E946E090E947509BD
:10097E00FF27662777270E94780AAC81BD818E817A
:10098E009F810E94020B0E9443090E947A090E94D5
:10099E005B09E12F1F5FE03059F60E946E09EEE20F
:1009AE00EC93C6CF0E947F093197AA85A083303081
:1009BE002CF43195A885B985EDE203C0A885B985DB
:1009CE00EBE2EC930E947F090E947F093197BF01F1
:1009DE00A32FEAE00E943B0CE05DDB01EC930E944A
:1009EE007F093197BF01A32FEAE00E94650CE05DFD
:1009FE00DB01EC93A885B985E0E0EC930E94C30C73
:100A0E0060960895BA93AA93EF9761970E94BA0CD5
:100A1E0010E0FE01E85AFF4F0190F081E02DE887CB
:100A2E00F987FE01EA5AFF4F0190F081E02DEE8327
:100A3E00FF83AE81BF81E0E0F0E0ED93FC93DE0139
:100A4E00A45ABF4F0E941F093197E4912E2FE03018
:100A5E0009F4E9C1E12FE03039F4253211F411E047
:100A6E0002C00E948509DEC1E130C1F4253219F4BD
:100A7E000E948509D6C112E0E0E0ED8B00E02D3238
:100A8E0011F401E0CFC12B3219F4EBE2ED8BCAC1A8
:100A9E00203219F4E0E2ED8BC5C102C0E23039F428
:100AAE0050E013E0203311F40068BCC102C0E33003
:100ABE0091F4203310F02A3308F007C0AAE05A9FB1
:100ACE00502DE22FE0535E0FADC140E02E3211F4F7
:100ADE0014E0A8C10FC0E43099F4203310F02A338B
:100AEE0008F008C00062AAE04A9F402DE22FE053B2
:100AFE004E0F98C12C3619F4026015E093C103C055
:100B0E00E53009F08FC1E22FE33659F40E948C09CB
:100B1E000E9493090E948C09A481AA930E949A09AB
:100B2E0080C1E53411F0E53609F403C0E63609F06C
:100B3E0048C0FE017696EE87FF870E94A0090E94AC
:100B4E00850C0E9466080E94A709AD85AA2332F083
:100B5E00AD89AB3259F0A03281F017C00E94A008C7
:100B6E000E940C0A0E946608EDE2ED8B07FF05C09D
:100B7E00ED89EA930E949A0908C0EE85FF853196A9
:100B8E00EE87FF873197AD89A08305FF46E02636B5
:100B9E0051F40E94A0080E949F0C4A93AB89BC8915
:100BAE000E94C50709C00E94A0080E949F0C4A938C
:100BBE002A93AC89BD8952DEFE0176960E94A90960
:100BCE001EC0E33739F40E94A7090E94B1090E94A2
:100BDE00A9090EC0E037C1F40E94A7090E94B1090D
:100BEE00EE87FF87AE85BF850E94B8071E2F08606F
:100BFE000F77403011F0411708F001C0142F40E07C
:100C0E00E0E0EC8B30E06DC0E43611F0E93611F423
:100C1E00046002C0E537A1F4EAE0EC8B01FF08C0E6
:100C2E00E0E0FAEC6AE97BE30E94B6091AE022C022
:100C3E00E0E1F7E260E070E00E94B60915E01AC04C
:100C4E00E83511F4086003C0E83709F0EAC0E0E1C6
:100C5E00EC8B01FF08C0E0E0F0E060E070E10E9484
:100C6E00B60918E007C0E0E0F0E160E070E00E9435
:100C7E00B60914E0403011F00F7701C041E001FFDA
:100C8E0008C00E94A7090E94A00914960E94850C14
:100C9E000FC002FF07C00E94A7090E94B1090E945F
:100CAE00030C06C00E94A7090E94B1096627772788
:100CBE00EA87FB876C877D8702FF12C0AD85AA236A
:100CCE0042F40E94A0080E94F00B0E946608EDE21A
:100CDE00ED8BED89E03019F01F5F4F5F01C00B7F88
:100CEE00342F00FD14C0151710F4351708F00FC07F
:100CFE0007FF08C002FF04C00B7F2D89115001C0F1
:100D0E0020E301C020E20E9485095150ECCF141758
:100D1E0090F4006102FF06C00E94BB0909F0515019
:100D2E0011504150E0E3EA930E949A09503009F0C5
:100D3E0051504150ECCF312FEC89E030B9F43030C6
:100D4E00A1F003FF06C0EE85FF852591EE87FF8794
:100D5E0005C0AE85BF852D91AE87BF870E948509E0
:100D6E00503009F051503150EACF51C00E94CD0998
:100D7E000E94400C2E2F2A3030F003FF02C0295C57
:100D8E0001C0295A01C0205D04FD21C0213360F449
:100D9E00A889B9898A899B89A130E0E0BE07E0E085
:100DAE008E07E0E09E0709F40BC0431740F453177B
:100DBE0010F000FF01C010C020E207FF08C020E3C2
:100DCE00006102FF04C00E94BB0909F051500E944D
:100DDE008509503009F0515031500E94CD090E94C2
:100DEE00710C0E946608EC89A889B9898A899B8949
:100DFE00FF27662777270E94400C0E94B609E889D4
:100E0E00F9896A897B890E94B60C09F0AFCF00FF81
:100E1E0008C0503031F05150E0E2EA930E949A0936
:100E2E00F8CF10E00CCEAE81BF810E94810C0E94E3
:100E3E00C10CEF966F960895FF92F82E26970E949A
:100E4E00BC0C0E94D209309719F4EFEFFFEF23C0CC
:100E5E00DE0116960E94EC0B8D010E94D209EE83E4
:100E6E00FF83E0E0E887E987DE011A960E94EC0B2B
:100E7E000E94810CFA93EA931A930A93EBEFF3E034
:100E8E00FA93EA93DE011A96BDDD9F01AE81BF8112
:100E9E00E0E0EC93F9010E94C30C2A96FF900895AE
:100EAE000E94A40C7B816A81F981E88177FB770F20
:100EBE0067FD7160972F9E5781F078F0983190F40E
:100ECE00AA27BB27882708948795B795A7959A9543
:100EDE00D1F7EA23FB23682305C0E8947727EE2792
:100EEE00FF2766276F77769508F4606877F9A991E2
:100EFE00B99189919991EA17FB076807790797FBD2
:100F0E0008950E94A40C0E94950C0E9457070E94FF
:100F1E009A0C19F40E94900C09C0E6F70E94900CEE
:100F2E00A0E0B0E080E89FE30E94AB0A249608950B
:100F3E00BA93AA93E991F991A991B991CD0105902E
:100F4E000D920020E1F7FC010895BA93AA93A9919E
:100F5E00B991EE27FF276D91662311F03196FBCFE5
:100F6E000895BA93AA93AA27BB27E991F991059000
:100F7E00002011F01196FBCFFD0108955FD1E0E046
:100F8E00EA83EFE3EB831A930A93EB85FC85EF3F3D
:100F9E00AFEFFA0731F406D2A8EDB0E00E949F073A
:100FAE008AC0EF3FAFE7FA0731F4FCD1A9EDB0E00C
:100FBE000E949F0780C0AC85AA2352F4E985FA856A
:100FCE006B857C850E940C0AF2D1F6D1EDE2EC9392
:100FDE00A885A73010F0E6E0E8871885E12F1150BC
:100FEE00E03021F0F0D16CD1F3D1F8CFF6D10E94E0
:100FFE00B20ADDD110E0E0E0F0E060E87FE3E8D196
:10100E00ECD10E94950B68F0DED147D1E1D11F5F84
:10101E00173230F0C7D1ADEDB0E00E949F074BC044
:10102E00EFCF103021F4C8D1E0E3EC9320C0E12FD4
:10103E001150E030E1F0C7D143D13BD1DF01CB01FC
:10104E000E948807C5D1C9D10E94500B0E943F0A49
:10105E000E2FB2D143D1F0E0B6D10E94030C0E9404
:10106E00780A0E94020BC2D13ED1A1D1E0CFE88511
:10107E00E030E9F0A1D1EEE2EC93E885E150E887AB
:10108E00EF5FA9F0B3D109D192D1E985FA856B85CD
:10109E007C850E943F0A0E2F8FD120D1F0E0A6D181
:1010AE000E94030C0E94780A1ED181D1E6CFAE8138
:1010BE00BF81E0E0EC93198108812D960895EA87AF
:1010CE00FB876C877D8708950E946C03ECE7F1E047
:1010DE00FA93EA930895E091A401F091A50160912D
:1010EE00A6017091A70108950E949F0C84E00E94B2
:1010FE0023072896ACE7B1E00C949503E0E0EA9361
:10110E00A0E00E945C030E941603AFE00C94310332
:10111E00F0E0DE011E960E94F80BAE0FBF1F0E947C
:10112E00850C0895AA85BB858C859D850E94760ABF
:10113E000895EA85FB856C857D850895AA85BB8516
:10114E008C859D850895EEEAF0E0FA93EA93E0919E
:10115E00A801F091A9016091AA017091AB010E94C2
:10116E009F0CB9DF0E949F0C88E00E9423072C96EB
:10117E00ACE7B1E00895E091A801F091A90160916A
:10118E00AA017091AB010895E091AC01F091AD010F
:10119E006091AE017091AF010895EC81FD816E8179
:1011AE007F810895E093A401F093A5016093A601B9
:1011BE007093A7010895E093A801F093A90160939D
:1011CE00AA017093AB0108950E94F800E093AC0160
:1011DE00F093AD016093AE017093AF010895D4DF2B
:1011EE00A091A801B091A9018091AA019091AB01A3
:1011FE000895A091A801B091A9018091AA019091A2
:10120E00AB010895E093B001F093B1016093B20188
:10121E007093B30108950E9431030C9416030E943B
:10122E00B703A0E30C94BC030E9431030C94B703E4
:10123E00ED91FD913196FE93EE930895BA93AA9394
:10124E002497E0E0E883E9830895AC81BD818E8127
:10125E009F81E0E0F0E060E271E40E94020BEC831B
:10126E00FD836E837F83089598DFAC85BD858E8563
:10127E009F850E94950B0895AC85BD858E859F85B3
:10128E000895EDECFCEC6CEC7DE30E94020BEC8718
:10129E00FD876E877F873F5F0895E0E0F0E060E2B4
:1012AE0071E40E94020B0895EC87FD876E877F879D
:1012BE000895A0E0B0E080E09FE30E94B20A089596
:1012CE00EDECFCEC6CEC7DE30E94020B0895A8851E
:1012DE00B9851196A887B98711970895E02FE05D1B
:1012EE00EC93E02F08950E94A90C0E94AB0A08957A
:1012FE00E885F9853196E887F98708952A93AF81B5
:10130E00B885E985FA8509950895FE01E65AFF4FDD
:10131E000190F081E02D08953497DE01A65ABF4F5B
:10132E00ED93FC930895AF81B885E985FA8509950B
:10133E000895DE01A65ABF4F0D90BC91A02D0895C1
:10134E00E4DFEACFEE87FF87AE85BF850E94AC074C
:10135E001E2F0895EEDF14960E94810C0895E88BDF
:10136E00F98B6A8B7B8B08950B7FED89EA93DE01F7
:10137E00A95ABF4F0D90BC91A02DFE01E75AFF4F09
:10138E000190F081E02D099550300895E889F98992
:10139E006A897B89D3CEDE011C960E94EC0B0E94DB
:1013AE00810C0895EE81FF81FA93EA930895E987FF
:1013BE00FA876B877C870895AE81BF811196AE83C5
:1013CE00BF8311970895AA81BB818C819D81089559
:1013DE00EA83FB836C837D830895EA81FB816C81B4
:1013EE007D81A985BA858B859C850895A985BA8549
:1013FE008B859C850895109639F080ED97E00197C6
:10140E00F1F7A8951197C9F708953097604070408D
:10141E0009F070580895552342F4503811F4E0FF46
:10142E0004C03196691F791F6BF050E8572711F4ED
:10143E005F93CFC05F3F31F0660F000C57956795F5
:10144E00752F08955F9300200AF0CFC0C8C050E8F2
:10145E00192E1522880F991F9527550F879550E83D
:10146E00072E0522660F771F7527550F679508956E
:10147E00689401C0E8945F93F2DF703818F07F3FF4
:10148E0008F4A7C056E1571BAAF4519558300EF434
:10149E00593030F0EFEFFFEF6FEF7FE777F91AC0BB
:1014AE0077275523B9F0EE0FFF1F661F771F5A954A
:1014BE00D1F710C07727583028F0EF2FF62F672F6F
:1014CE005850F9CF552331F076956795F795E795F6
:1014DE005A95D1F700200AF47CD15F910895689453
:1014EE0001C0E894309760407040B1F0002426F0BF
:1014FE00772312F400946DD1172E7EE1112032F075
:10150E007A95EE0FFF1F661F111CF9CFEF2FF62FE6
:10151E00612D5F938ADF5F9108954F93AF01FD01B7
:10152E00DA01AB01BC01CA01402D012C142E4F91E2
:10153E000895EA0FFB1F681F0895E095F0956095DA
:10154E00EF5FFF4F6F4F08955F9381DF903871F11A
:10155E0050E8152604C05F937ADF903839F1703861
:10156E0021F1572F591B2BF112F4D7DFFACF583137
:10157E0018F0AA27BB278827583028F0AB2FB82F92
:10158E0088275850F9CF552329F08695B795A795FA
:10159E005A95D9F7502D512572F0CBDF38F4679557
:1015AE00F795E795739513F420C0B7DF3EDF5F9193
:1015BE000895D8F7FBCFEA1BFB0B680B51F010F424
:1015CE000094BBDF662392F3EE0FFF1F661F7A9522
:1015DE00CBF7EE27FF27662777275F910895EFEF6A
:1015EE00FFEF6FE77FEF5F910895EFEFFFEF6FE78C
:1015FE007FE75F9108955F932ADF703851F390383B
:10160E0041F301240894791F23F41CF300203AF3CC
:10161E00ECCF0F921F932F933F934F9311272227B7
:10162E009927689FA0018F9F302D410D591F6B9FE9
:10163E00300D411D591F8E9F27D0BF9F25D06A9F09
:10164E0023D0BE9F1DD0AF9F1BD0AE9F110D291F63
:10165E00391F491F591FE32FF42F652F522F4F911A
:10166E003F912F911F910F9066232AF0550FEE1F79
:10167E00FF1F661F02C073954BF2CDDE5F9108957A
:10168E00100D211D391F02C0200D311D491F591F7C
:10169E0008955F93DCDE703821F411200AF49FCF99
:1016AE00A4CF903809F495CF01240894970B1BF41E
:1016BE00D4F30020F3CF792F1F932F933F934F93A3
:1016CE0011241127222733274427552790E2AE17DE
:1016DE00BF078607410730F0AE1BBF0B860B410BD1
:1016EE00089401C08894551F221F331F111CAA1F76
:1016FE00BB1F881F441F9A9551F7F901612D4F9119
:10170E003F912F911F91662332F0550FEE1FFF1F51
:10171E00661F7A9543F27FDE5F91089599239AF0C2
:10172E00772342F0971748F029F4AE17BF078607C4
:10173E0020F031F098948894089598940894089520
:10174E001894889408957723C2F7971798F3A9F7FA
:10175E00EA17FB07680788F399F3ECCFEED02497CE
:10176E005F939F81992311F4289633CF12F4289614
:10177E003CCF4F9342E48E81BD81AC8188839983A7
:10178E00AA83BB83FD01BC01AC81BD818E819F818B
:10179E0080DF88819981AA81BB81DDDE60DE7A954A
:1017AE0044DE88819981AA81BB81AE27A87F21F46E
:1017BE00BF178607970729F04A9519F0DF01CB016D
:1017CE00DDCF4F915F91289608950024AF0DB01D87
:1017DE000895F09560957095E195FF4F6F4F7F4F8F
:1017EE000895EE0FFF1FEE0FFF1F0895FE2FFF0F40
:1017FE00FF0B6F2F7F2F08956F2F660F660B762FBF
:10180E0008958B2F880F880B982F08957A9F702D2F
:10181E006B9F700DF89F700DE99F700D6A9F602D84
:10182E00710DFB9F600D711DE89F600D711D882766
:10183E00FA9FF02D610D781FEB9FF00D611D781F43
:10184E00EA9FE02DF10D681F781F0895002498E09F
:10185E00AA0F001C0E1A10F40E0E01C0A1609A956C
:10186E00B9F7EA2FA02D089539D0F0DF0EF4E195E7
:10187E0008953F934F935F930024112444275527D7
:10188E0030E2AA0FBB1F881F991F001C111C441F9A
:10189E00551F0E1A1F0A460B570B28F40E0E1F1E4D
:1018AE00461F571F01C0A1603A9559F7FD01BC01B3
:1018BE00D001CA015F914F913F910895E894A7FF1F
:1018CE0002C0A1956894E7FDE195C0DFEA2F0EF402
:1018DE00E1950895CEDFFD01BC010895E894E7FF80
:1018EE0002C0E1956894A7FF04C0A19500F8039487
:1018FE0000FA0895ED91FC9111970895ED91FD91E7
:10190E006D917C9113970895ED93FD936D937C9358
:10191E000895E881F9816A817B810895A881B98152
:10192E008A819B810895E883F9836A837B83089576
:10193E007A936A93FA93EA9308959A938A93BA9351
:10194E00AA930895182E862F612D192E972F712D7B
:10195E001B2EBF2FF12D1A2EAE2FE12D089530978D
:10196E006040704008955A934A933A932A931A937B
:10197E000A9308955D814C813B812A8119810881EA
:10198E000895AC0FBD1F05900D928A95E1F708954D
:00000001FF
