:0A0000000C944C000C9400000C94CA
:10000A0000000C9400000C9400000C9400000C9466
:10001A0000000C9400000C9400000C9400000C9456
:10002A0000000C9400000C9400000C9400000C9446
:10003A0000000C9400000C9400000C9400000C9436
:10004A0000000C9400000C9400000C9400000C9426
:10005A0000000C9400000C9400000C9400000C9416
:10006A0000000C9400000C9400000C9400000C9406
:10007A0000000C9400000C9400000C9400000C94F6
:10008A0000003F065B4F666D7D077F6F0000F894A6
:10009A00EE27ECBBF1E0F5BFE5BFE0936C008DE025
:1000AA00A2E0BB27ED938A95E9F780E090E1A0E012
:1000BA00B1E0ED930197E9F7EFEFEDBFE0E1EEBFB5
:1000CA00C0E0D5E00C9469002C978CE0A0E0B0E089
:1000DA00ECE8F0E00E943E01B5D0EABBE0E0EBBB01
:1000EA00EFEFE7BBE0E0E8BBEFEFE4BBE0E0E5BB46
:1000FA00EFEFE1BBE0E0E2BBEFEFE2B9E0E0E3B94A
:10010A00E0936100E0936200E0936400E09365008D
:10011A00E0BFE3BFE2BFE1BFEFBDEEBDEDBDECBDA9
:10012A00E7BDE6BDEBBDEABDE9BDE8BDE0937900F8
:10013A00E0937800E5BDE4BDE3BDE0938B00E09376
:10014A008A00E0938900E0938800E0938100E093BD
:10015A008000E0938700E0938600E0938500E093B7
:10016A008400E0938300E0938200E7BFE0937D0080
:10017A00E0936A00EABFE9BFEAB9E0939A00E0E8CF
:10018A00E8B9E0E0E0BDE6B9EDB9E093740062D009
:10019A00E3B960D0E2BB5ED0E5BB5CD0E8BBC899EE
:1001AA004FC0AA85BB85129764F04330E0E05E0732
:1001BA0044F02530E0E03E0724F00A30E0E01E0774
:1001CA000CF403C03FD0EA87EB872530E0E03E0716
:1001DA0024F00A30E0E01E070CF406C000E010E04C
:1001EA0020E030E04F5F5F4F0A30E0E01E0724F066
:1001FA0000E010E02F5F3F4F4A30E0E05E073CF03E
:10020A0040E050E0EA85FB853196EA87FB8722D0F9
:10021A00E3B9DE01A20FB31FEC91E2BBDE01A40F2A
:10022A00B51FEC91E5BBEA85FB85DE01AE0FBF1F6A
:10023A00EC91E8BBA0E6BAEE0E9434010F5F1F4FB3
:10024A00A6CFFFCF00E010E020E030E040E050E031
:10025A00E0E00895DE01A00FB11FEC910895109619
:10026A0039F08AEF90E00197F1F7A8951197C9F74D
:10027A000895AC0FBD1F05900D928A95E1F7089578
:00000001FF
