:0600000012C0FECFFDCF8F
:10000600FCCFFBCFFACFF9CFF8CFF7CFF6CFF5CFAE
:10001600F4CFF3CFF2CFF1CFF0CFEFCFEECFEDCFDE
:10002600F894EE27ECBBF1E0FBBFEBBFE5BF8DE03C
:10003600A2E0BB27ED938A95E9F780E094E0A0E67D
:10004600ED930197E9F7EFE5EDBFE4E0EEBFC0E61B
:10005600D1E000C0EFEFE7BBE0E0E8BBE4BBE5BB07
:10006600E1BBE2BBE3BFE2BFEFBDEEBDEDBDECBD64
:10007600E7BDE6BDEBBDEABDE9BDE8BDE2BDE5BD58
:10008600E4BDE3BDE9BFE5BFEAB9E0E8E8B9E0E011
:10009600E0BFE6B9EDB9E6BF989904C0999902C0E8
:1000A6009A9B01C003C0E1E0F0E02F01989B04C0D9
:1000B600999902C09A9B01C003C0E2E0F0E02F01CB
:1000C600989904C0999B02C09A9B01C003C0E3E0C3
:1000D600F0E02F01989B04C0999B02C09A9B01C037
:1000E60003C0E4E0F0E02F01989904C0999902C09A
:1000F6009A9901C003C0E5E0F0E02F01989B04C087
:10010600999902C09A9901C003C0E6E0F0E02F0178
:10011600989904C0999B02C09A9901C003C0E7E070
:10012600F0E02F01989B04C0999B02C09A9901C0E8
:1001360003C0E8E0F0E02F01E1E0F0E040D021F478
:10014600C09AC19A3FD041D0E2E0F0E038D021F425
:10015600E0EF3ED0EFE03CD0E3E0F0E030D019F441
:10016600EAEA36D032D0E4E0F0E029D021F4E0EF3C
:1001760031D0EFE02FD0E5E0F0E021D021F4EAEA3B
:1001860029D0E5E527D0E6E0F0E019D039F4C09AA9
:10019600C19AA1E2B0E022D0E5E51CD0E7E0F0E0AC
:1001A6000ED021F4EAEA14D0E0EF12D0E8E0F0E055
:1001B60006D019F40AD0EFE00BD06ECFFFCFE415CE
:1001C600F5050895ABE4B0E009C0E5E5E8BBFACF74
:1001D600E8BBF8CFE8BBA1E2B0E000C0109639F06A
:1001E60080ED97E00197F1F7A8951197C9F7089563
:00000001FF
