:020000000C945E
:100002002F000C9400000C9400000C9400000C943F
:1000120000000C9400000C9400000C9400000C945E
:1000220000000C9400000C9400000C9400000C944E
:1000320000000C9400000C9400000C9400000C943E
:1000420000000C9400000C9400000C9400000C942E
:1000520000003F065B4F666D7D077F6FF894EE27C9
:10006200ECBBF1E0FBBFEBBFE5BF8DE0A2E0BB273D
:10007200ED938A95E9F780E094E0A0E6ED9301978D
:10008200E9F7EFE5EDBFE4E0EEBFC0E6D1E00C94A6
:100092004A002A978AE0A0E0B0E0E4E5F0E00E949E
:1000A200AA0000E010E0E0E0EABBEBBBE7BBE8BB84
:1000B200EFEFE4BBE0E0E5BBE1BBE2BBE3BFE2BFE5
:1000C200ECBFEFBDEEBDEDBDECBDE7BDE6BDEBBDEA
:1000D200EABDE9BDE8BDE2BDE5BDE4BDE3BDE9BF02
:1000E200E5BFE4BFEAB9E0E8E8B9E0E0E0BFE6B9BD
:1000F200EDB9E6BF1ED0C8990DC00F5F1F4F0A3081
:10010200E0E01E0714F000E010E013D0AAE9B2E02C
:100112000E94A000C9990BC001501040112312F493
:1001220000E010E006D0AAE9B2E00E94A000E2CF0F
:10013200FFCFDE01A00FB11FEC91E5BB0895109631
:1001420039F08AEF90E00197F1F7A8951197C9F776
:100152000895AC0FBD1F05900D928A95E1F70895A1
:00000001FF
