:0600000012C0FECFFDCF8F
:10000600FCCFFBCFFACFF9CFF8CFF7CFF6CFF5CFAE
:10001600F4CFF3CFF2CFF1CFF0CFEFCFEECFEDCFDE
:10002600F894EE27ECBBF1E0FBBFEBBFE5BF8DE03C
:10003600A2E0BB27ED938A95E9F780E094E0A0E67D
:10004600ED930197E9F7EFE5EDBFE4E0EEBFC0E61B
:10005600D1E000C0EFEFE7BBE0E0E8BBE4BBE5BB07
:10006600E1BBE2BBE3BFE2BFEFBDEEBDEDBDECBD64
:10007600E7BDE6BDEBBDEABDE9BDE8BDE2BDE5BD58
:10008600E4BDE3BDE9BFE5BFEAB9E0E8E8B9E0E011
:10009600E0BFE6B9EDB9E6BF989B03C0E1E0F0E04A
:1000A6002F01999B03C0E2E0F0E02F019A9B03C069
:1000B600E3E0F0E02F01E1E0F0E0E415F50529F4D6
:1000C600C09AC19A16D0E5E517D0E2E0F0E0E41553
:1000D600F50521F4E0EF10D0EFE00ED0E3E0F0E01C
:1000E600E415F50521F4EAEA07D0E5E505D0D4CF15
:1000F600FFCFABE4B0E002C0E8BBFBCF109639F00F
:1001060080ED97E00197F1F7A8951197C9F7089543
:00000001FF
